:020000040800F2
:10000000684F0020A50100085D1E00084517000884
:10001000591E00084F07000881200008000000005A
:100020000000000000000000000000007D1F00082C
:1000300053070008000000005F1E00087F1F000833
:10004000BF010008BF010008BF010008BF01000890
:10005000BF010008BF010008BF010008BF01000880
:10006000BF010008BF010008BF010008BF01000870
:10007000BF010008BF010008BF010008BF01000860
:10008000BF010008BF010008BF010008BF01000850
:10009000BF010008BF010008BF010008BF01000840
:1000A000BF010008BF010008BF010008BF01000830
:1000B000BF010008BF010008BF010008BF01000820
:1000C000BF010008BF010008BF010008BF01000810
:1000D000BF01000859200008BF010008BF01000847
:1000E000BF010008BF010008BF010008BF010008F0
:1000F000BF010008BF010008BF010008BF010008E0
:10010000BF010008BF010008BF010008BF010008CF
:10011000BF010008BF010008BF010008BF010008BF
:10012000BF010008BF010008BF010008BF010008AF
:10013000BF010008BF010008BF010008BF0100089F
:10014000BF010008BF010008BF010008BF0100088F
:10015000BF010008BF010008BF010008BF0100087F
:10016000BF010008BF010008BF010008BF0100086F
:10017000BF010008BF010008BF0100080000000027
:10018000BF010008BF010008DFF80CD000F05EFAE4
:1001900000480047052D0008684F002080F30888BC
:1001A000704700000648804706480047FEE7FEE724
:1001B000FEE7FEE7FEE7FEE7FEE7FEE7FEE7FEE717
:1001C0003D200008890100082DE9F05F0546002068
:1001D00092469B4688460646814640241BE02846B8
:1001E00041464746224600F069F853465A46C01A2F
:1001F000914110D311461846224600F050F82D1AAE
:1002000067EB01084F4622460120002100F047F825
:1002100017EB00094E41201EA4F10104DFDC484623
:1002200031462A464346BDE8F09F40EA01039B075A
:1002300003D009E008C9121F08C0042AFAD203E05B
:1002400011F8013B00F8013B521EF9D27047D2B2BF
:1002500001E000F8012B491EFBD270470022F6E7AF
:1002600010B513460A4604461946FFF7F0FF20462C
:1002700010BD30B50B46014600202022012409E0C4
:1002800021FA02F59D4205D303FA02F5491B04FA4F
:1002900002F52844151EA2F10102F1DC30BD202A2E
:1002A00004DB203A00FA02F1002070479140C2F1CD
:1002B000200320FA03F3194390407047202A04DBFF
:1002C000203A21FA02F00021704721FA02F3D040CF
:1002D000C2F1200291400843194670472DE9FE4FB4
:1002E000804681EA0300C00F0C46009021F00041D7
:1002F00023F00045B8EB0200A94105D24046214653
:1003000090461C460B46024623F00040104347D05F
:10031000270DC7F30A00C3F30A510290401A019057
:1003200040286BDAC3F3130040F4801B0098924618
:1003300020B10023D2EB030A63EB0B0B0198594663
:10034000C0F140025046FFF7AAFF06460D46504650
:100350005946019A00F08CF910EB08006141002425
:1003600087EA115284EAE7731A4340D0009A62B3D5
:10037000019A012A4FEA075215DC001B61EB0201CA
:100380004FF0004202EA0752CDE90042001C41F55D
:10039000801132462B4600F08CF903B0BDE8F08F97
:1003A00040462146F9E7001B61EB0201001C41F5C4
:1003B000801300185B412018A2F5001747EB0301DA
:1003C00040EAD570B6196D4111E06D084FEA360666
:1003D00045EAC0754FEA0752001B61EB0201001CA1
:1003E00041F5801149084FEA300000195141324669
:1003F0002B4603B0BDE8F04F00F04CB90098012245
:1004000040000023D0EB020263EBE073009821462A
:100410004FEAE074B8EB000061EB0401E9E783F018
:1004200000435BE781F0004158E72DE9FE4F81EA88
:10043000030404F0004421F0004100944FF0000B4D
:1004400023F0004350EA01045ED052EA03045BD07B
:10045000C3F30A54C1F30A552C44A4F2F3340194B3
:10046000A0FB0254C1F3130141F48011C3F3130341
:1004700043F4801301FB024400FB034E840A970AF5
:1004800044EA815447EA8357A4FB076802958D0A22
:1004900005FB07854FEA932C04FB0C542705029DAE
:1004A0004FEA065847EA1637B5EB08056EEB070C1E
:1004B000870E920E47EA811742EA8312A7FB0201D8
:1004C000B6EB0B0164EB00042B0D43EA0C335E1812
:1004D00044EB1C50DA465146E7FB0201C5F3130416
:1004E0004FEA0B3343EA14534FEA0432019C43EAC8
:1004F0000603A4F10C040294009CCDE900B400F0C2
:10050000D8F803B0BDE8F08F00200146F9E72DE9E7
:10051000F04D81EA030404F0004B21F0004514463D
:100520004FF0000A23F0004150EA050220D054EABF
:1005300001021DD0C5F30A570246C5F31303C1F3E8
:100540001300C1F30A5640F4801543F48013A7EB5F
:100550000608101BD64608F2FD3873EB050002D3DF
:1005600008F1010801E092185B41B8F1000F03DACD
:1005700000200146BDE8F08D00204FF480110646B2
:1005800084460EE0171B73EB050705D3121B63EBC4
:10059000050306434CEA010C49084FEA3000921863
:1005A0005B4150EA0107EDD152EA030012D082EA22
:1005B000040083EA0501084305D0101BAB4106D2B5
:1005C0000122002306E000224FF0004302E06FF01A
:1005D000010253101AEB06004CEB085110EB0A0015
:1005E00041EB0B01BDE8F04D00F054B8C1F30A52E5
:1005F000C1F3130140F2FF3341F480119A4202DA51
:1006000000200146704740F233439A42A2F233423F
:1006100002DC5242FFF752BEFFF741BE30B5041E66
:1006200071F1000404DB4FF00044404264EB01012F
:10063000141E73F1000405DB1C464FF000435242C8
:1006400063EB0403994208BF904230BD064C074D4E
:1006500006E0E06840F0010394E807009847103492
:10066000AC42F6D3FFF794FDA8310008C83100086A
:10067000202A06DBCB17203A41FA02F043EAE07366
:1006800006E041FA02F3D040C2F120029140084353
:100690001946704710B5141E73F1000408DA401CA7
:1006A00041F1000192185B411A4301D120F0010091
:1006B00010BD2DE9F04D92469B4611B1B1FA81F281
:1006C00002E0B0FA80F220329046FFF7E8FD0446DF
:1006D0000F4640EA0A0041EA0B0153465A460843D6
:1006E00013D0114653EA010019D0C8F14002504618
:1006F000FFF7E4FD05460E46504659464246FFF7D1
:10070000CEFD084305D0012004E020463946BDE86F
:10071000F08D0020054346EAE0762C4337430A98E3
:100720006305E40AA0EB08000022FD0A44EA4754EE
:100730000A3002D500200146E9E701051019694198
:10074000DDE9084500196941BDE8F04DA2E700BFA9
:10075000FEE770477047000010B5002201B909E0BC
:10076000012901D10A0205E0022901D10A0201E0B2
:100770004FF440720E4B1B6823F440730C4C236003
:1007800023461B681343236023461B6823F0F803AA
:10079000236023461B68022444EAC0042343044C1C
:1007A000236023461B6843F48033236010BD0000A0
:1007B000103C02401C48006800F40070B0B11A48B8
:1007C000006820F400701849086000BF08460068FF
:1007D00040F4006008600846006820F4006008608B
:1007E00000BF0846006840F4007008600E480068CA
:1007F00000F48060B0B10C48006820F480600A49C1
:10080000086000BF0846006840F480500860084651
:10081000006820F48050086000BF0846006840F47B
:100820008060086070470000003C024030B587B02F
:10083000054600F017F80A4800F034F90446002095
:1008400001900394062004900220059006A901A8B7
:1008500000F072F910B1012007B030BD0020FBE7B5
:100860000040000810B500F009FAF32001490860C3
:1008700010BD00000C3C02402DE9F04104460E463C
:100880001746002500BF15E056F825C06246002334
:100890002146022000F0A6F948B956F82510206834
:1008A000884202D00220BDE8F081241D01E003202F
:1008B000F9E76D1CBD4202D202488442E4D900200F
:1008C000F1E70000FBFF07080A4A126822F44072B1
:1008D000084B1A601A46126842F004021A601A465F
:1008E00012684FF4803343EA00231A43014B1A6025
:1008F00070470000103C0240074A126822F4407220
:10090000054B1A601A4612681A601A46126842F0BD
:1009100001021A6001707047103C024010B50D4989
:10092000096821F440710B4C21602146096841F4AB
:10093000407121602146096841F001012160026097
:1009400000BF00BF00BFBFF36F8F00BF00BF00BF7D
:10095000436010BD103C0240084A126822F4407205
:10096000064B1A601A46126842F480721A601A46E0
:10097000126842F001021A6001807047103C024088
:10098000084A126822F44072064B1A601A4612682E
:1009900042F400721A601A46126842F001021A60AC
:1009A00001607047103C02402348006800F01000CE
:1009B00040B12248C06940F010002049C8611020B1
:1009C0001D4908601C48006800F0200040B11B4829
:1009D000C06940F008001949C86120201649086024
:1009E0001548006800F0400040B11448C06940F06C
:1009F00004001249C86140200F4908600E48006891
:100A000000F0800040B10D48C06940F002000B4981
:100A1000C8618020084908600748006800F00200AB
:100A200040B10648C06940F020000449C861022076
:100A300001490860704700000C3C0240482F00202C
:100A400070B50446002500201449C86100F036FA4C
:100A5000054609E0601C38B124B100F02FFA401BB4
:100A6000A04201D9032070BD0D48006800F4803019
:100A70000028EFD10A48006800F0010010B1012001
:100A8000074908600648006800F0F20018B1FFF757
:100A90008BFF0120E7E70020E5E70000482F00205A
:100AA0000C3C0240014600201C4A914203D2B1F1A5
:100AB000006F00D330E01A4A914204D2174A9142A3
:100AC00001D3012028E0174A914204D2144A9142EE
:100AD00001D3022020E0144A914204D2114A9142EB
:100AE00001D3032018E0114A914204D20E4A9142E8
:100AF00001D3042010E00E4A914204D20B4A9142E5
:100B000001D3052008E00B4A914204D2084A9142E1
:100B100001D3062000E007207047000000400008D5
:100B20000080000800C00008000001080000020862
:100B300000000408000006082DE9F04104460E46B6
:100B40000127002500BF2548007E012802D1022090
:100B5000BDE8F08101202149087600BF4CF25030F9
:100B6000FFF76EFF0746002F31D1401E306020682E
:100B700001280FD1207C6168FFF7A6FE4CF25030AF
:100B8000FFF75EFF07461648006820F0040014498E
:100B900008601AE0A56812E0217C2846FFF7DCFD1A
:100BA0004CF25030FFF74CFF07460D48006820F02C
:100BB000FA000B4908600FB1356005E06D1CD4E9FF
:100BC00002100844A842E7D800BFFFF7F3FD00BFBA
:100BD00000200249087600BF3846B9E7482F0020B8
:100BE000103C02402DE9F04106460F4614461D46D2
:100BF0004FF0010800BF1F48007E012802D10220EB
:100C0000BDE8F08101201B49087600BF4CF250304E
:100C1000FFF716FF8046B8F1000F23D126B9E1B2E5
:100C20003846FFF769FE12E0012E04D1A1B2384622
:100C3000FFF792FE0BE0022E04D121463846FFF763
:100C40009FFE04E022462B463846FFF767FE4CF233
:100C50005030FFF7F5FE80460748006820F001009D
:100C60000549086000BF00200249087600BF4046E1
:100C7000C6E70000482F0020103C02400020094930
:100C8000096801F0004159B10749064A0C3A116060
:100C9000064911600349096801F0004101B10120D2
:100CA00070470000103C024023016745AB89EFCD3F
:100CB000F8B502460B460025002400200021DCE0A8
:100CC000012606FA01F51E6806EA0504AC4273D156
:100CD0005E68012E08D05E68022E05D05E68112E77
:100CE00002D05E68122E13D190684F000326BE40DA
:100CF000B0434F00DE68BE4030439060506801262C
:100D00008E40B0431E79C6F300168E4030435060CB
:100D1000D0684F000326BE40B0434F009E68BE40DF
:100D20003043D0605E68022E02D05E68122E13D16E
:100D3000CF0802F1200656F827004E07F70E0F26BF
:100D4000BE40B0434F07FF0E1E69BE403043CF0880
:100D500002F1200646F8270010684F000326BE4027
:100D6000B0431E7906F003064F00BE4030431060CA
:100D70005E6806F08056B6F1805F7DD100BF002628
:100D80000096404E366846F480463E4F3E603E46F2
:100D9000366806F48046009600BF00BF3A4E8F08C2
:100DA00056F827008E07370F0F26BE40B043374E48
:100DB000B24202D1002624E05EE0354EB24201D1BB
:100DC00001261EE0334EB24201D1022619E0324E16
:100DD000B24201D1032614E0304EB24201D10426C2
:100DE0000FE02F4EB24201D105260AE02D4EB2424D
:100DF00001D1062605E02C4EB24201D1072600E0C3
:100E000008268F073F0FBE4030431F4E8F0846F81D
:100E10002700264E3068A0435E6806F48036B6F59B
:100E2000803F00D12043214E3060361D3068A04302
:100E30005E6806F40036B6F5003F00D120431B4E35
:100E4000361D3060361D3068A0435E6806F480169B
:100E5000B6F5801F00D12043144E08363060361D91
:100E60003068A0435E6806F40016B6F5001F00D196
:100E700020430E4E0C363060491C1029FFF420AF81
:100E8000F8BD00004438024008380140000002402C
:100E90000004024000080240000C02400010024022
:100EA0000014024000180240001C0240003C0140B7
:100EB0000AB1816101E00B04836170470148006859
:100EC00070470000B4000020034800680349097817
:100ED0000844014908607047B4000020BC000020AD
:100EE00010B50D48006840F400700B4908600846D2
:100EF000006840F4806008600846006840F4807034
:100F00000860032000F092F8002000F007F800F0DD
:100F10002BF8002010BD0000003C024070B50446D4
:100F20000E4800784FF47A71B1FBF0F00C49096873
:100F3000B1FBF0F5284600F0EBFB08B1012070BDD5
:100F4000102C07D200222146501E00F031F805482F
:100F5000046001E00120F2E70020F0E7BC0000207F
:100F6000C0000020B800002008B500BF002000909D
:100F70000E48006840F480400C490860084600684C
:100F800000F48040009000BF00BF00BF0020009030
:100F9000081F006840F08050091F0860084600687C
:100FA00000F08050009000BF00BF08BD44380240F0
:100FB0002DE9F05F80460D461646002701F072F8D5
:100FC000074639462A46334601F00700C0F1070AB2
:100FD000BAF1040F02D94FF0040A01E0C0F1070A88
:100FE000D14600F1040ABAF1070F02D24FF0000A0D
:100FF00001E0A0F1030AD4464FF0010A0AFA09FA07
:10100000AAF1010A0AEA020A0AFA0CFA4FF0010BE5
:101010000BFA0CFBABF1010B0BEA030B4AEA0B04D6
:101020002146404601F046F8BDE8F09F00BF00F0C1
:101030000702064B19684FF6FF031940044B0B4398
:1010400043EA0221014B196000BF70470CED00E03C
:101050000000FA0570B504460D460CB9012070BDBC
:101060005848006800F00F00A84209D255490D7099
:101070000846006800F00F00A84201D00120EEE70A
:10108000207800F0020002281DD1207800F0040032
:10109000042805D14C48006840F4E0504A490860F3
:1010A000207800F00800082805D14748006840F47F
:1010B0006040454908604448006820F0F000A1689D
:1010C000084341490860207800F00100A8B3606837
:1010D000012807D13C4808380068C0F34040B8B93F
:1010E0000120BCE76068022802D06068032807D1AD
:1010F000354808380068C0F3406048B90120AEE7C1
:10110000314808380068C0F3400008B90120A6E75C
:101110002D48006820F00300616808432A490860F0
:10112000FFF7CCFE064609E0FFF7C8FE801B41F240
:101130008831884202D9032091E707E022480068FD
:1011400000F00C006168B0EB810FEDD11D48006824
:1011500000F00F00A84209D91A490D70084600682E
:1011600000F00F00A84201D0012078E7207800F0BD
:101170000400042807D11448006820F4E050E16816
:10118000084311490860207800F00800082808D1B9
:101190000D48006820F46040216940EAC1000A4916
:1011A000086000F019F808490968C1F30311074AFB
:1011B000515CC8400649086006480068FFF7AEFE6B
:1011C00000204CE7003C0240083802409031000803
:1011D000C0000020B80000202DE9F04700240025C1
:1011E0000026A1462548006800F00C0020B1042824
:1011F00005D008283AD105E0DFF8849039E0DFF81F
:10120000849036E01D48001F006800F03F041B4832
:10121000001F006800F4800078B11A481749091FC0
:101220000968C1F38811A0FB017001462246002322
:101230003846FEF7C9FF05460EE011480F49091F61
:101240000968C1F38811A0FB017001462246002302
:101250003846FEF7B9FF05460848001F0068C0F38E
:101260000140401C4600B5FBF6F902E0DFF81090A3
:1012700000BF00BF4846BDE8F087000008380240C4
:101280000024F40040787D01F8B504460CB9012033
:10129000F8BD207800F00100002874D0F9480068FB
:1012A00000F00C0004280DD0F648006800F00C0097
:1012B000082813D1F348001F006800F48000B0F53F
:1012C000800F0BD1EF4808380068C0F34040002879
:1012D00059D06068002856D10120D9E700BF606866
:1012E000B0F5803F08D1E7480838006840F4803006
:1012F000E449083908601EE06068B0F5A02F0DD100
:10130000E0480838006840F48020DE490839086069
:101310000846006840F4803008600CE0D94808387E
:10132000006820F48030D749083908600846006812
:1013300020F48020086000BF606890B1FFF7BEFD18
:10134000054606E0FFF7BAFD401B642801D90320DB
:101350009EE7CC4808380068C0F340400028F1D030
:1013600011E0FFF7ABFD054606E0FFF7A7FD401BC8
:10137000642801D903208BE7C24808380068C0F30D
:1013800040400028F1D1207800F0020002285FD10F
:10139000BC48006800F00C0058B1BA48006800F082
:1013A0000C0008281CD1B748001F006800F480001A
:1013B000B0B9B44808380068C0F3400020B1E06814
:1013C000012801D0012063E7AE480838006820F00A
:1013D000F800216940EAC100AA490839086037E0ED
:1013E000E06800B30120A8490860FFF767FD0546E3
:1013F00006E0FFF763FD401B022801D9032047E701
:10140000A04808380068C0F340000028F1D09D488B
:101410000838006820F0F800216940EAC1009949C5
:101420000839086014E0002097490860FFF746FD7E
:10143000054606E0FFF742FD401B022801D90320C4
:1014400026E7904808380068C0F340000028F1D132
:10145000207800F0080008282CD16069A8B101208C
:101460008A490860FFF72AFD054606E0FFF726FDDA
:10147000401B022801D903200AE782486C3000682B
:10148000C0F340000028F1D014E000207F4908603C
:10149000FFF714FD054606E0FFF710FD401B02288C
:1014A00001D90320F4E677486C300068C0F34000AF
:1014B0000028F1D1207800F00400042870D1002722
:1014C00070483830006800F0805090B900BF0020AC
:1014D00000906C483830006840F0805069493831DD
:1014E00008600846006800F08050009000BF00BF10
:1014F00001276748006800F48070B0B9644800684C
:1015000040F4807062490860FFF7D8FC054606E0A9
:10151000FFF7D4FC401B022801D90320B8E65C4841
:10152000006800F480700028F2D000BFA068012895
:1015300008D154486830006840F0010051496831D2
:1015400008601DE0A06805280DD14E48683000688D
:1015500040F004004B49683108600846006840F0DC
:10156000010008600CE047486830006820F0010086
:101570004449683108600846006820F004000860AB
:1015800000BFA068A8B1FFF799FC054609E0FFF786
:1015900095FC401B41F28831884202D9032077E64E
:1015A00026E0384868300068C0F340000028EED0DC
:1015B00013E0FFF783FC054608E0FFF77FFC401BC4
:1015C00041F28831884201D9032061E62D48683014
:1015D0000068C0F340000028EFD1012F07D129484F
:1015E0003830006820F0805026493831086000BF4C
:1015F000A069002845D02348006800F00C000828A6
:101600005DD0A069022845D100201F490866FFF778
:1016100055FC054606E0FFF751FC401B022801D9A6
:10162000032035E6174808380068C0F340600028FA
:10163000F1D1D4E907010843616A40EA811101222E
:10164000A06AC2EB500041EA00412C20005D41EA53
:1016500000600C49091F086001200B490866FFF76C
:101660002DFC054606E0FFF729FC401B022801D9A6
:1016700003200DE6034808380068C0F340600028E6
:10168000F1D03FE00838024000004742800E474258
:101690000070004000201C490866FFF70FFC05465B
:1016A00006E0FFF70BFC401B022801D90320EFE501
:1016B00016480068C0F340600028F2D122E0A0691B
:1016C000012800D1E4E51148001D066806F48001F8
:1016D000E069814214D106F03F01206A81420FD1B6
:1016E00047F6C0703040616A884209D106F4403143
:1016F000A06A814204D106F07061E06A814201D0A3
:101700000120C5E50020C3E5000047420038024043
:1017100070B504462546681EB0F1807F01D30120D4
:101720000FE0681E4FF0E02148610F214FF0FF30BD
:1017300000F0C0FC00204FF0E02188610720086124
:10174000002070BD00BFFEE7F0B5144A002500245C
:10175000002320E0B1FBF2F6303606F0FF0C2E46F7
:101760006D1C00F806C0B1FBF2F602FB16110A264A
:10177000B2FBF6F26E1E865D302E01D1012600E02E
:1017800000260CB9012700E000273E400EB10025DD
:1017900000E0641C5B1C0A2BDCD3F0BD00CA9A3B42
:1017A00008B5054909680143034A116011460968F3
:1017B0000140009100BF08BD30380240F0B502463C
:1017C0000B4600240021186890FAA0F0B0FA80F4CB
:1017D0008AE00125A540186800EA050100297DD0AE
:1017E0005868012802D0586802281CD1986895686A
:1017F00091FAA1F6B6FA86F677000326BE40B54305
:1018000091FAA1F6B6FA86F6760000FA06F63543A6
:10181000956000BFD86855688D4301FB00F63543DD
:10182000556000BF00BF1869D56891FAA1F6B6FAF5
:1018300086F677000326BE40B54391FAA1F6B6FAC4
:1018400086F6760000FA06F63543D56000BF586884
:10185000022831D191FAA1F0B0FA80F0082814D210
:101860005869156A91FAA1F6B6FA86F6B7000F26FE
:10187000BE40B54391FAA1F6B6FA86F6B60000FA74
:1018800006F63543156200BF16E05869556A0E0A20
:1018900096FAA6F6B6FA86F6B7000F26BE40B5430E
:1018A0000E0A96FAA6F6B6FA86F6B60000FA06F61C
:1018B0003543556200BF00BF5868156891FAA1F61C
:1018C000B6FA86F677000326BE40B54391FAA1F634
:1018D000B6FA86F6760000FA06F600E003E0354335
:1018E000156000BF00BF641C1868E04000287FF44A
:1018F00070AFF0BD10B5044600F0E6FA2060206835
:1019000000F0AEFA6060606800F0BAFAA06060684B
:1019100000F0C8FAE06010BD02480068C0F388100B
:101920007047000004380240016921F490410161D0
:10193000416921F02A0141617047C16841F40051B9
:10194000C16070472DE9FF4104460D46012700267E
:10195000204600F05EF8002845D1E9686868084331
:1019600029690843A9690843E16849F20C62914377
:101970000843E060A868216921F4405101432161D6
:1019800000BF6869616921F440710143616100BF72
:101990006846FFF7AFFF1648844201D1039E17E067
:1019A0001448844201D1029E12E01348844201D1BE
:1019B000029E0DE01148844201D1039E08E01048C8
:1019C000844201D1029E03E00E48844200D1029E6F
:1019D0004EB1286838B10027314620462B68AA69E5
:1019E00000F01CF800BF384604B0BDE8F0810000EC
:1019F0000010014000440040004800400014014035
:101A0000004C00400050004001460868C0F3C01080
:101A100070470146C868C0F3403070472DE9FC5F4D
:101A200006460C4691461D46B9F5004F68D1022086
:101A3000A0FB057003461920A4FB00A001463A460E
:101A40005046FEF7C1FB6421B0FBF1F04FEA001AEB
:101A50000220A0FB05710B461920A4FB00B13A46F9
:101A60005846FEF7B1FB83460220A0FB05700346F3
:101A70001920A4FB00013A46CDE90001FEF7A4FBC2
:101A80006421B0FBF1F000EBC00101EB0010ABEB07
:101A90008000322101EBC0006421B0FBF1F000F0C6
:101AA000F8000AEB400A0220A0FB0570034619204B
:101AB000A4FB00B13A465846FEF786FB8346022057
:101AC000A0FB057003461920A4FB00013A46CDE9AE
:101AD0000001FEF779FB6421B0FBF1F000EBC001DF
:101AE00001EB0010ABEB8000322101EBC000642160
:101AF000B0FBF1F000F00700504480B2B06067E046
:101B00000420A0FB057003461920A4FB00A0014699
:101B10003A465046FEF758FB82460420A0FB05716A
:101B20001920A4FB00B084463A460B46584661464D
:101B3000FEF74AFB6421B0FBF1F000EBC00101EBC2
:101B40000010AAEB8000322101EB00106421B0FBF1
:101B5000F1F000F0F00A0420A0FB05700346192004
:101B6000A4FB00B001463A465846FEF72DFB64211F
:101B7000B0FBF1F00AEB001A0420A0FB057003464D
:101B80001920A4FB00B13A465846FEF71DFB8346D8
:101B90000420A0FB057003461920A4FB00013A466F
:101BA000CDE90001FEF710FB6421B0FBF1F000EB82
:101BB000C00101EB0010ABEB8000322101EB001003
:101BC0006421B0FBF1F000F00F00504480B2B0602F
:101BD000BDE8FC9F4160704700B587B0142102A8A2
:101BE000FEF73CFB00BF002001902648006840F053
:101BF0001000244908600846006800F010000190B9
:101C000000BF00BF00BF002001900846006840F000
:101C1000800008600846006800F08000019000BF66
:101C200000BF00BF002001900846006840F001009E
:101C300008600846006800F00100019000BF00BF86
:101C400000BF002001900846006840F008000860CE
:101C50000846006800F00800019000BF00BF0022A5
:101C600008210948FFF724F9082002900120039079
:101C700000200490059002A90348FFF719F807B067
:101C800000BD000030380240001002402DE9F04154
:101C90008EB01C2107A8FEF7E1FA182101A8FEF773
:101CA000DDFA1020434909680143424A1160114698
:101CB00009680140009100BF00BF0120FFF770FDDF
:101CC0004FF4C06001900220029003200390002096
:101CD000049005900720069001A93748FFF76EFD94
:101CE0002521364B1B68C3F30220002425460346FA
:101CF000C3F1070CBCF1040F02D94FF0040C01E052
:101D0000C3F1070C674603F1040CBCF1070F02D2C4
:101D10004FF0000C01E0A3F1030C66464FF0010CFC
:101D20000CFA07FCACF1010C0CEA040C0CFA06FCF2
:101D30004FF0010808FA06F8A8F1010808EA0508BA
:101D40004CEA080200BF002904DB1007030E1C4800
:101D5000435407E01007040E18480C3001F00F033D
:101D60001B1FC45400BF2520002809DB00F01F0200
:101D7000012191404209920002F1E022C2F80011D3
:101D800000BF4FF4E13007900020089009900A90BE
:101D90000C200B9000200C900D9007A90948FFF72C
:101DA000D1FD0848FFF7C0FD0648FFF7C6FD0EB09D
:101DB000BDE8F08144380240000002400CED00E034
:101DC00000E400E00010014000B58FB01C2108A81D
:101DD000FEF744FA182102A8FEF740FA4FF400304B
:101DE0001A4909680143194A1160114609680140FE
:101DF000019100BF00BF0820FFF7D2FC60200290D5
:101E000002200390032004900020059006900720F4
:101E1000079002A90E48FFF7D1FC4FF4E13008907B
:101E2000002009900A900B900C200C9000200D903F
:101E30000E9008A90748FFF785FD0648FFF774FDD7
:101E40000448FFF77AFD0FB000BD000040380240A3
:101E5000000C02400044004000BFFEE7704770479E
:101E6000014600BF0448006800F0F0000009034A82
:101E7000125C21FA02F070470838024090310008E5
:101E8000014600BF0548006800F4E050044A02EB38
:101E90009020027821FA02F07047000008380240D2
:101EA000A0310008014600BF0548006800F460400A
:101EB000044A02EB5030027821FA02F07047000029
:101EC00008380240A031000810B5002400BF0C48BB
:101ED000006800F00C0020B1042804D0082809D1C3
:101EE00003E0084C08E0084C06E0082000F00EF87B
:101EF000044601E0034C00BF00BF204610BD0000B7
:101F0000083802400024F40040787D012DE9F041BA
:101F1000044600250026002700BF1548006800F48D
:101F2000800006461EB1B6F5800F04D101E0114DC8
:101F300003E0114D01E00F4D00BF00BF082C14D18C
:101F400000BF0B48006800F03F00B5FBF0F8FFF75A
:101F5000E3FC08FB00F80648006800F4403001216B
:101F600001EB10404000B8FBF0F73846BDE8F081C7
:101F7000043802400024F40040787D01704710B519
:101F8000FEF7A2FF10BD000000B593B0302107A8F6
:101F9000FEF764F9142102A8FEF760F900BF0020E3
:101FA00001902448006840F08050224908600846AB
:101FB000006800F08050019000BF00BF00BF00200B
:101FC00001901D48006840F480401B4908600846A5
:101FD000006800F48040019000BF00BF012007901E
:101FE0000004089002200D9041050E9119210F91D7
:101FF0004FF4A8711091022111910721129107A8A5
:10200000FFF742F908B1FEF7A5FB0F20029002206E
:102010000390002004904FF4A05005904FF480509E
:102020000690052102A8FFF715F808B1FEF792FB0C
:1020300013B000BD40380240007000400548006801
:1020400040F47000034908604FF000600149803996
:102050000860704788ED00E010B500BF06480068D2
:10206000C0F3401038B100BF03484068C0B2044616
:1020700002490968884710BD00100140A0000020F7
:1020800000BFFEE70FB4054B10B503A9044A029840
:1020900000F0F6F810BC5DF814FB0000192B0008E6
:1020A000C400002002480068C0F30220704700000E
:1020B0000CED00E010B5002804DB0A07130E054AFA
:1020C000135406E00A07140E034A00F00F031B1F07
:1020D000D45410BD00E400E018ED00E002E008C8B0
:1020E000121F08C1002AFAD170477047002001E092
:1020F00001C1121F002AFBD1704700002DE9FF5FCC
:1021000082B00021DDE90430020DDDF840B0034368
:1021100018D044F61050A2F2FF3242431514119821
:1021200001281FD0A5EB0B00401C5FEA000A4FF00E
:1021300000064E4FDFF83891B046504615D5CAF12B
:10214000000413E0119801244AA3012801D16FEA89
:102150000B010298119AC0E90031C0E9024206B0B1
:10216000BDE8F09FCBF10000DFE704460021404AC4
:10217000491842EB0450CDE9001012E0E00707D007
:1021800032463B4640464946FEF74FF9804689466F
:1021900032463B4610461946FEF747F906460F46BB
:1021A0006410002CEAD1DDE90401DDE90023BAF175
:1021B000000F06DAFEF739F942464B46FEF735F9CD
:1021C00005E0FEF7A4F942464B46FEF7A0F90446A7
:1021D0000E460022284BFEF721FA03D84FF0FF30BD
:1021E000014607E00022254B20463146FEF776F8EF
:1021F000FEF7FCF9102409E0002C0ADB0A22002378
:10220000FDF7E2FF039B30321A55641E50EA0102CB
:10221000F2D1641C039AC4F111031444119A012AE7
:1022200003D0012208430DD10AE0084304D0002066
:102230004FF0110B119072E7A3EB0B056D1E0DE033
:102240005B4504DD4FF0000205F1010504E003DA0F
:102250004FF00002A5F10105002AECD00298119977
:10226000C0E90231C0E9004579E7000000001440F0
:102270000000F03F300000000000F0430000E03FAD
:102280002DE9FF4F95B09B468946064600250FE293
:10229000252877D100242746F84A0121059400E03B
:1022A000044316F8013F203B01FA03F01042F7D136
:1022B00030782A2811D06FF02F033078A0F1300247
:1022C000092A16D8059A44F0020402EB820203EBB5
:1022D00042021044761C0590EFE759F8042B059252
:1022E000002A03DA504244F40054059044F00204FA
:1022F000761C30782E2816D116F8010F44F004040D
:102300002A280DD06FF02F023078A0F13003092B6E
:1023100009D807EB870302EB4303C718761CF3E7E2
:1023200059F8047B761C30786C280FD006DC4C28DA
:1023300017D068280DD06A2814D104E0742810D072
:102340007A280FD10DE044F400140AE044F480141C
:1023500001E044F440147278824202D104F5801402
:10236000761C761C307866280BD013DC582877D082
:1023700009DC002875D04528F6D04628F4D0472837
:102380001AD19DE118E0632835D0642879D06528FA
:1023900012D195E1702873D008DC6728F1D0692844
:1023A0006FD06E280DD06F2806D1B5E073282CD0E1
:1023B000752875D0782874D05A46179990476D1CA7
:1023C00075E1C4F30250022809D003280DD0D9F8D2
:1023D000001004280DD00D6009F1040967E1D9F857
:1023E0000010EA17C1E90052F6E7D9F800100D8095
:1023F000F2E70D70F0E719F8041B8DF800100020CB
:102400008DF80100EA46012003E059F804AB4FF0D3
:10241000FF3061074FF0000102D40DE008F1010127
:102420008846B9420FDA8045F8DB1AF8081000290F
:10243000F4D108E008F1010188468142FADB1AF87C
:1024400008100029F6D105985B46A0EB0807214645
:102450003846179A00F094FA284400EB080507E084
:102460004DE029E10DE01AF8010B5A461799904703
:10247000B8F10108F7D25B4621463846179A13E1B6
:1024800042E00A220092C4F302524FF0000A022AEC
:1024900008D059F804CB032A4FEAEC710AD00DE0BA
:1024A00029E02AE009F1070121F00702F2E802C160
:1024B000914609E00FFA8CFC4FEAEC71042A03D133
:1024C0004FFA8CFC4FEAEC71002907DA0A4600212A
:1024D000DCF1000C61EB02012D2202E0220504D5A3
:1024E0002B228DF80420012203E0E20701D02022F4
:1024F000F7E7904659E00A2102E010220DE0102192
:102500004FF0000A00910BE010224FF0000A44F057
:1025100004040827009203E008224FF0000A00920A
:10252000C4F30252022A05D059F804CB0021032A31
:1025300008D009E009F1070121F00702F2E802C121
:10254000914605E01FFA8CFC042A01D10CF0FF0C27
:102550004FF00008220728D5702806D0009B83F092
:10256000100353EA0A0305D00EE040228DF8042040
:10257000012208E05CEA010206D030228DF8042036
:102580008DF8050002229046009B83F0080353EA71
:102590000A030AD15CEA010201D1620705D53022A3
:1025A0008DF804204FF001087F1E582804D034A075
:1025B00003900EA802900DE036A0F9E7534660465E
:1025C000009AFDF701FE84460398825C0298401E43
:1025D000029002705CEA0100F0D1029806A9081A84
:1025E00000F1200A600702D524F4803400E00127BE
:1025F000574502DDA7EB0A0000E0002000EB0A01CE
:10260000009005984144401A0590E00306D45B46CB
:102610002146179A059800F0B3F90544002706E013
:1026200001A85A46C05D179990476D1C7F1C47450D
:10263000F6DBE0030CD55B462146179A059800F0BF
:102640009FF9054404E030205A46179990476D1CC5
:102650000099481E00900029F5DC08E002980299D4
:102660005A460078491C0291179990476D1CBAF19F
:102670000001AAF1010AF1DC65E10000092801006E
:1026800030313233343536373839616263646566E8
:1026900000000000303132333435363738394142AA
:1026A000434445460000000000F058F90544761CFC
:1026B000307800287FF4ECAD19B02846BDE8F08FE3
:1026C000620700D4062709F1070222F0070CFCE894
:1026D0000223E14603F000485FEA080C02D00FF243
:1026E000702C0DE05FEA045C02D50FF2682C07E065
:1026F0005FEAC47C02D00FF2602C01E0AFF2700CF4
:102700004FF0FF3823F00043CDF850C065280CD0BF
:1027100006DC452809D046281DD047283DD13DE09C
:10272000662818D067287ED138E00021112F01DB00
:10273000112000E0781CCDE9000106A90EA8FFF7E2
:10274000DDFCDDE90F010E9A03910021009207F1F3
:10275000010A04914DE04FF000400097CDE90110CF
:1027600006A90EA8FFF7CAFCDDE90F0203920E9B33
:1027700011990022DDF80CA00093049211B9791C84
:1027800000EB010AB7EB0A0004D4C0F1FF3007F1F7
:10279000010A0490AAEB0700019044E0012F00DA3F
:1027A00001270021112F01DD112000E03846CDE97D
:1027B000000106A90EA8FFF7A1FCDDE90F010E9AA2
:1027C0000391002104910092BA4621070CD4039989
:1027D000514500DA8A46BAF1010F05DD009AAAF1E7
:1027E0000101515C302908D0B84202DA10F1040F1F
:1027F00006DA0121CDE9011015E0AAF10101E9E7AE
:10280000002805DC049901440491AAEB000102E0D0
:10281000411C514500DD8A460499401A401C019034
:102820004FF000400290200704D40198504501DB8E
:10283000CDF8048000208DF84F0002980DF14F076D
:10284000B0F1004F25D02B200E9002984FF00208D7
:1028500000280CDA404202902D200E9007E00A2159
:102860000298FDF706FD3031029007F8011DB8F11E
:102870000001A8F10108F2DC02980028EFD1791ECE
:102880000E980870307800F0200040F0450007F8FE
:10289000020D12A8C01B00F107081498007800B1BF
:1028A000012000EB0A01019801EBE0710598414419
:1028B000401A401E0590E00306D45B462146179A55
:1028C000059800F05DF805441498007818B15A4650
:1028D000179990476D1CE00324D55B462146179A53
:1028E000059800F04DF805441CE00498002807DB2B
:1028F000DDE90301884203DD0098405C179901E09F
:10290000179930205A469047049805F10105401C5C
:1029100004900198401E019004D12E205A46179928
:1029200090476D1CBAF10001AAF1010ADDDC05E057
:1029300017F8010B5A46179990476D1CB8F1000122
:10294000A8F10108F4DC5B462146179A0598ABE62E
:102950002D0000002B000000200000002DE9F041B8
:10296000044600251E461746880404D405E039466F
:102970002020B0476D1C641EF9D52846BDE8F081C3
:102980002DE9F041044600251E469046C80301D5B6
:10299000302700E02027880404D505E0414638466A
:1029A000B0476D1C641EF9D52846BDE8F08130B5EE
:1029B00002460B46002015E012F8015B80EA052074
:1029C00000210DE000F400442CB141F2210484EA1E
:1029D0004004A0B203E04FF6FF7404EA4000491C33
:1029E0000829EFDB1C1EA3F10103E5D130BD000077
:1029F00010B542F210010248FDF730FC10BD000096
:102A0000380F002010B500F06DF800F025F810BD6B
:102A100010B5FFF7EDFF0249012000F064F810BD8A
:102A2000252A000808498B688968491C064A916074
:102A3000A2F6F871C85411468968B1F5805F02D3D7
:102A4000002201498A607047382F00200149086040
:102A500070470000B000002070B51F488168C06852
:102A60000C1A002C08DDB4F5006F02DB4FF4006097
:102A700000E02046054612E0002C0FDA1648C06838
:102A8000C0F58050B0F5006F02D34FF4006003E052
:102A90001148C068C0F58050054600E070BD0F4881
:102AA0000068B0B10C49C9680D4A881829460B4A1C
:102AB000126890470848C06841190748C160C0685B
:102AC000B0F5805F01D3002001E00348C0680249EF
:102AD000C86000BFE2E70000382F0020B0000020EF
:102AE000401F0020704770B504460D462946204619
:102AF00000F05AF970BD000010B5044621460548A3
:102B0000FFF768F800BF0348FEF77EFF0028FAD001
:102B100010BD0000001001400A46C1B2054B5960CB
:102B200000BF00BF00BF03490968C1F3C0110029FD
:102B3000F8D070470044004070B504460D46294661
:102B4000204600F0F1F970BD2DE9F04105460C4634
:102B50001746984643463A4621460DA0FFF792FA9B
:102B6000E01704EB9070821029460F480068FDF7CB
:102B700083FE40B90C48006820440B4908600BA054
:102B8000FFF780FA02E00DA0FFF77CFABDE8F081C4
:102B900064617461206C656E3A2564202025642090
:102BA00025640D0A000000000400002064617461C7
:102BB000207772697465206F6B0D0A00646174611F
:102BC000207772697465206572726F720D0A000059
:102BD00010B50446214602A0FFF754FA10BD0000CC
:102BE0002D2D6572726F7220636F6465203A2564C3
:102BF0002D2D0D0A0000000010B5044634B906A0C2
:102C0000FFF740FA084800F067F803E0214607A004
:102C1000FFF738FA10BD00002D2D66696C65206540
:102C20006E642D2D0D0A0000004000082D2D6669F0
:102C30006C6520656E64206572726F7231203A2572
:102C4000642D2D0D0A00000070B504460E46154691
:102C50002A46214603A0FFF715FA0648FDF7E6FDD0
:102C6000002070BD66696C653A25732025640D0AE5
:102C700000000000004000082DE9F84304460E461D
:102C800015461F46DDF820803B462A46314605A002
:102C9000CDF80080FFF7F6F90E4828442060BDE823
:102CA000F8830000726561642073697A653A25646F
:102CB00020206861735F726561643A256420207228
:102CC000656D61696E3A256420207065723A2564ED
:102CD0000D0A00001700002010B5044620680749BF
:102CE0000840B0F1005F08D16068054908602068BD
:102CF000FDF754FA02480068804710BD0000F02F2D
:102D00000000002086B0FEF7EBF8FFF73DF9FEF774
:102D100063FFFEF7BBFFFFF757F800BF1748C06817
:102D200040F020001549C86000BF00BF0846C068D9
:102D300040F48070C86000BFFFF76AFE1048FFF7DC
:102D400085FE1048049010480090104801901048EB
:102D500002901048039010480590684600F044F82F
:102D60000EA0FFF78FF9FDF77DFD85220F210D489D
:102D700000F03AF901E0FFF745FEFCE700100140E2
:102D8000392B0008F92A0008D12B0008492C00082B
:102D9000492B0008F92B0008792C0008696E69742A
:102DA0000D0A000008000020012806D0022807D0E4
:102DB000032808D004280CD108E0074A116008E075
:102DC000064A116005E0064A116002E0054A1160FA
:102DD00000BF00BF70470000A0000020A40000203A
:102DE000A8000020AC00002010B50446182221469F
:102DF0000148FDF71AFA10BD000600202DE9FE4F2C
:102E000080460C4691469A4600200190BAF5806FA4
:102E100002D34FF4806000E080200646B24501D224
:102E2000504600E0304607462A4890F810010090CE
:102E30002848D0F80C31D0F8082127483946D0F876
:102E400014C04046E04725A0D8F80010FFF71AF953
:102E5000B6F5806F02D10220207001E001202070C1
:102E600084F801906FEA0900A070D8F80000029081
:102E7000032506E00298007860550298401C0290F5
:102E80006D1CF81C8542F5D3B74207D8FD1C02E043
:102E90001A2060556D1CF01C8542F9D3E91EE01C18
:102EA000FFF785FD01900198001260550198C1B2AD
:102EB000681C21544FF0000B06E014F80B00064A82
:102EC000116988470BF1010B701D8345F5D330461E
:102ED000BDE8FE8F18060020000600202D2D3A5078
:102EE00020616464723A25780D0A000070B50446CA
:102EF00000250120207000206070FF20A07000BF1E
:102F000003E00021E81C21546D1C822DF9D300261A
:102F100004E0A05D034A11698847761C852EF8D32A
:102F200070BD00000006002070B505460E46002466
:102F300003E0285D00F06AF8641CB442F9D370BD68
:102F40002DE9FF4F83B0044688469246DDF840B035
:102F500000260120207000206070FF20A070002556
:102F600004E018F80510E81C21546D1C18F8050041
:102F700008B15545F5D30021E81C2154684606994F
:102F8000FEF7E2FB2D1D06E03046761C1DF8002002
:102F900028466D1C22541DF806000028F4D12E4648
:102FA00002E00020A055761C0BF103008642F8D306
:102FB000F11EE01CFFF7FBFC07463812A055701C01
:102FC00027544FF0000906E014F80900054A11697A
:102FD000884709F101090BF105008145F4D307B0D9
:102FE000BDE8F08F0006002070B505460C46164679
:102FF000224629460448FDF718F90348C0F8004165
:10300000C0F8046170BD00001806002038B5044601
:10301000554890F81C0107286FD2DFE800F0042023
:10302000276F7A909700432C18D101204E4981F8E0
:103030001E010846D0F80401C1F80C018020009060
:103040000846D0F80431D0F800214848FFF778FF4F
:103050000120454981F81C01002038BD80E0062C84
:1030600003D10220404981F81C0179E0432C04D1AE
:103070003D4890F81E01012801D0062C3CD10220C9
:1030800000903948D0F80C3190F81E21374900F5EE
:103090008A70FFF7B3FE85B23348D0F808012844A0
:1030A0003149C1F808010846D0F80C01D1F80811DF
:1030B000401A2D49C1F80C010846D0F808016421D6
:1030C00048432949D1F80411B0FBF1F0264981F8B1
:1030D00010010846D0F80C01002804DC032081F818
:1030E0001C010020B9E7204890F81E01401C1E4931
:1030F00081F81E010020B0E732E030E0062C07D155
:103100000420194981F81C01FFF7F6FC0020A4E710
:1031100026E0152C08D116480169042088470520AF
:10312000114981F81C0109E0062C04D106200E4942
:1031300081F81C0102E00FA0FEF7A4FF10E0062CAE
:1031400003D10620084981F81C0109E0432C05D170
:103150000648FFF7CBFE0BA0FEF794FF00E000BF90
:1031600000BF00BF79E700001806002038070020E4
:103170000006002073656E74206572726F72200DF8
:103180000A00000073656E7420656E640D0A00000D
:103190000000000000000000010203040607080907
:1031A0000000000001020304C831000800000020F4
:1031B000C8000000DC20000890320008C800002091
:1031C000A04E0000EC2000080000000000400008B5
:1031D0007465737475706C6F61642E7478740061BB
:1031E00073646A6C66616A31323933383437313925
:1031F000383233373439383137323339383437317C
:1032000039383237333439387364666C616A736CB9
:1032100064666A616C73646A666C617361313334CD
:103220003931373233393431393832333734393848
:1032300031373239383334373931383233376861DE
:103240006B736A6468666B61687364666B6A6861F5
:10325000736B646A66686B616873643132333435EA
:103260003637383900000000000000000000000080
:10327000000000000000000000000000000000004E
:1032800010000000010000000024F4000000000015
:040000050800018965
:00000001FF
